{
  "_format": "hh-sol-artifact-1",
  "contractName": "YieldSplitter",
  "sourceName": "contracts/YieldSplitter.sol",
  "abi": [
    {
      "inputs": [
        {
          "internalType": "address payable",
          "name": "_wrappedKDA",
          "type": "address"
        },
        {
          "internalType": "uint256",
          "name": "_maturityDuration",
          "type": "uint256"
        }
      ],
      "stateMutability": "nonpayable",
      "type": "constructor"
    },
    {
      "anonymous": false,
      "inputs": [
        {
          "indexed": true,
          "internalType": "address",
          "name": "user",
          "type": "address"
        },
        {
          "indexed": false,
          "internalType": "uint256",
          "name": "amount",
          "type": "uint256"
        }
      ],
      "name": "Deposit",
      "type": "event"
    },
    {
      "anonymous": false,
      "inputs": [],
      "name": "MaturityReached",
      "type": "event"
    },
    {
      "anonymous": false,
      "inputs": [
        {
          "indexed": true,
          "internalType": "address",
          "name": "previousOwner",
          "type": "address"
        },
        {
          "indexed": true,
          "internalType": "address",
          "name": "newOwner",
          "type": "address"
        }
      ],
      "name": "OwnershipTransferred",
      "type": "event"
    },
    {
      "anonymous": false,
      "inputs": [
        {
          "indexed": true,
          "internalType": "address",
          "name": "user",
          "type": "address"
        },
        {
          "indexed": false,
          "internalType": "uint256",
          "name": "ptAmount",
          "type": "uint256"
        },
        {
          "indexed": false,
          "internalType": "uint256",
          "name": "ytAmount",
          "type": "uint256"
        },
        {
          "indexed": false,
          "internalType": "uint256",
          "name": "wkdaAmount",
          "type": "uint256"
        }
      ],
      "name": "Redeem",
      "type": "event"
    },
    {
      "anonymous": false,
      "inputs": [
        {
          "indexed": true,
          "internalType": "address",
          "name": "user",
          "type": "address"
        },
        {
          "indexed": false,
          "internalType": "uint256",
          "name": "wkdaAmount",
          "type": "uint256"
        },
        {
          "indexed": false,
          "internalType": "uint256",
          "name": "ptAmount",
          "type": "uint256"
        },
        {
          "indexed": false,
          "internalType": "uint256",
          "name": "ytAmount",
          "type": "uint256"
        }
      ],
      "name": "Split",
      "type": "event"
    },
    {
      "anonymous": false,
      "inputs": [
        {
          "indexed": false,
          "internalType": "uint256",
          "name": "amount",
          "type": "uint256"
        },
        {
          "indexed": false,
          "internalType": "uint256",
          "name": "timestamp",
          "type": "uint256"
        }
      ],
      "name": "YieldDistributed",
      "type": "event"
    },
    {
      "inputs": [],
      "name": "claimYield",
      "outputs": [
        {
          "internalType": "uint256",
          "name": "yieldAmount",
          "type": "uint256"
        }
      ],
      "stateMutability": "nonpayable",
      "type": "function"
    },
    {
      "inputs": [
        {
          "internalType": "uint256",
          "name": "amount",
          "type": "uint256"
        }
      ],
      "name": "depositAndSplit",
      "outputs": [],
      "stateMutability": "nonpayable",
      "type": "function"
    },
    {
      "inputs": [],
      "name": "distributeYield",
      "outputs": [],
      "stateMutability": "nonpayable",
      "type": "function"
    },
    {
      "inputs": [
        {
          "internalType": "address",
          "name": "token",
          "type": "address"
        },
        {
          "internalType": "uint256",
          "name": "amount",
          "type": "uint256"
        }
      ],
      "name": "emergencyRecover",
      "outputs": [],
      "stateMutability": "nonpayable",
      "type": "function"
    },
    {
      "inputs": [],
      "name": "getContractStats",
      "outputs": [
        {
          "internalType": "uint256",
          "name": "totalDeposited_",
          "type": "uint256"
        },
        {
          "internalType": "uint256",
          "name": "totalYieldDistributed_",
          "type": "uint256"
        },
        {
          "internalType": "uint256",
          "name": "maturity_",
          "type": "uint256"
        },
        {
          "internalType": "bool",
          "name": "isExpired_",
          "type": "bool"
        }
      ],
      "stateMutability": "view",
      "type": "function"
    },
    {
      "inputs": [
        {
          "internalType": "address",
          "name": "user",
          "type": "address"
        }
      ],
      "name": "getUserPosition",
      "outputs": [
        {
          "internalType": "uint256",
          "name": "ptBalance",
          "type": "uint256"
        },
        {
          "internalType": "uint256",
          "name": "ytBalance",
          "type": "uint256"
        },
        {
          "internalType": "uint256",
          "name": "claimableYield",
          "type": "uint256"
        }
      ],
      "stateMutability": "view",
      "type": "function"
    },
    {
      "inputs": [],
      "name": "isExpired",
      "outputs": [
        {
          "internalType": "bool",
          "name": "",
          "type": "bool"
        }
      ],
      "stateMutability": "view",
      "type": "function"
    },
    {
      "inputs": [],
      "name": "lastYieldDistribution",
      "outputs": [
        {
          "internalType": "uint256",
          "name": "",
          "type": "uint256"
        }
      ],
      "stateMutability": "view",
      "type": "function"
    },
    {
      "inputs": [],
      "name": "markAsExpired",
      "outputs": [],
      "stateMutability": "nonpayable",
      "type": "function"
    },
    {
      "inputs": [],
      "name": "maturity",
      "outputs": [
        {
          "internalType": "uint256",
          "name": "",
          "type": "uint256"
        }
      ],
      "stateMutability": "view",
      "type": "function"
    },
    {
      "inputs": [],
      "name": "owner",
      "outputs": [
        {
          "internalType": "address",
          "name": "",
          "type": "address"
        }
      ],
      "stateMutability": "view",
      "type": "function"
    },
    {
      "inputs": [],
      "name": "principalToken",
      "outputs": [
        {
          "internalType": "contract PrincipalToken",
          "name": "",
          "type": "address"
        }
      ],
      "stateMutability": "view",
      "type": "function"
    },
    {
      "inputs": [
        {
          "internalType": "uint256",
          "name": "amount",
          "type": "uint256"
        }
      ],
      "name": "redeemBeforeMaturity",
      "outputs": [],
      "stateMutability": "nonpayable",
      "type": "function"
    },
    {
      "inputs": [
        {
          "internalType": "uint256",
          "name": "amount",
          "type": "uint256"
        }
      ],
      "name": "redeemPTAfterMaturity",
      "outputs": [],
      "stateMutability": "nonpayable",
      "type": "function"
    },
    {
      "inputs": [],
      "name": "renounceOwnership",
      "outputs": [],
      "stateMutability": "nonpayable",
      "type": "function"
    },
    {
      "inputs": [
        {
          "internalType": "uint256",
          "name": "_interval",
          "type": "uint256"
        }
      ],
      "name": "setYieldDistributionInterval",
      "outputs": [],
      "stateMutability": "nonpayable",
      "type": "function"
    },
    {
      "inputs": [],
      "name": "totalDeposited",
      "outputs": [
        {
          "internalType": "uint256",
          "name": "",
          "type": "uint256"
        }
      ],
      "stateMutability": "view",
      "type": "function"
    },
    {
      "inputs": [],
      "name": "totalYieldDistributed",
      "outputs": [
        {
          "internalType": "uint256",
          "name": "",
          "type": "uint256"
        }
      ],
      "stateMutability": "view",
      "type": "function"
    },
    {
      "inputs": [
        {
          "internalType": "address",
          "name": "newOwner",
          "type": "address"
        }
      ],
      "name": "transferOwnership",
      "outputs": [],
      "stateMutability": "nonpayable",
      "type": "function"
    },
    {
      "inputs": [
        {
          "internalType": "address",
          "name": "",
          "type": "address"
        }
      ],
      "name": "userDeposits",
      "outputs": [
        {
          "internalType": "uint256",
          "name": "",
          "type": "uint256"
        }
      ],
      "stateMutability": "view",
      "type": "function"
    },
    {
      "inputs": [
        {
          "internalType": "address",
          "name": "",
          "type": "address"
        }
      ],
      "name": "userPTBalance",
      "outputs": [
        {
          "internalType": "uint256",
          "name": "",
          "type": "uint256"
        }
      ],
      "stateMutability": "view",
      "type": "function"
    },
    {
      "inputs": [
        {
          "internalType": "address",
          "name": "",
          "type": "address"
        }
      ],
      "name": "userYTBalance",
      "outputs": [
        {
          "internalType": "uint256",
          "name": "",
          "type": "uint256"
        }
      ],
      "stateMutability": "view",
      "type": "function"
    },
    {
      "inputs": [],
      "name": "wrappedKDA",
      "outputs": [
        {
          "internalType": "contract WrappedKDA",
          "name": "",
          "type": "address"
        }
      ],
      "stateMutability": "view",
      "type": "function"
    },
    {
      "inputs": [],
      "name": "yieldDistributionInterval",
      "outputs": [
        {
          "internalType": "uint256",
          "name": "",
          "type": "uint256"
        }
      ],
      "stateMutability": "view",
      "type": "function"
    },
    {
      "inputs": [],
      "name": "yieldToken",
      "outputs": [
        {
          "internalType": "contract YieldToken",
          "name": "",
          "type": "address"
        }
      ],
      "stateMutability": "view",
      "type": "function"
    },
    {
      "stateMutability": "payable",
      "type": "receive"
    }
  ],
  "bytecode": "0x610100604052620151806008553480156200001957600080fd5b5060405162005578380380620055788339810160408190526200003c91620003a0565b60016000556200004c3362000332565b6001600160a01b038216608052620000658142620003dc565b60e08190526040518391906200007b9062000384565b60808082526014908201527f5072696e636970616c20546f6b656e20774b444100000000000000000000000060a082015260c0602082018190526007908201526650542d774b444160c81b60e08201526001600160a01b039092166040830152606082015261010001604051809103906000f08015801562000101573d6000803e3d6000fd5b506001600160a01b031660a05260e051604051839190620001229062000392565b60808082526010908201526f5969656c6420546f6b656e20774b444160801b60a082015260c0602082018190526007908201526659542d774b444160c81b60e08201526001600160a01b039092166040830152606082015261010001604051809103906000f0801580156200019b573d6000803e3d6000fd5b506001600160a01b0390811660c05260a0516040516348cd7c1160e01b81523060048201529116906348cd7c1190602401600060405180830381600087803b158015620001e757600080fd5b505af1158015620001fc573d6000803e3d6000fd5b505060c0516040516348cd7c1160e01b81523060048201526001600160a01b0390911692506348cd7c119150602401600060405180830381600087803b1580156200024657600080fd5b505af11580156200025b573d6000803e3d6000fd5b505060a05160c0516040516323ffce8560e01b81526001600160a01b039182166004820152911692506323ffce859150602401600060405180830381600087803b158015620002a957600080fd5b505af1158015620002be573d6000803e3d6000fd5b505060c05160a051604051639ef1b22b60e01b81526001600160a01b03918216600482015291169250639ef1b22b9150602401600060405180830381600087803b1580156200030c57600080fd5b505af115801562000321573d6000803e3d6000fd5b505042600755506200040492505050565b600180546001600160a01b038381166001600160a01b0319831681179093556040519116919082907f8be0079c531659141344cd1fd0a4f28419497f9722a3daafe3b4186f6b6457e090600090a35050565b61156a806200241c83390190565b611bf2806200398683390190565b60008060408385031215620003b457600080fd5b82516001600160a01b0381168114620003cc57600080fd5b6020939093015192949293505050565b80820180821115620003fe57634e487b7160e01b600052601160045260246000fd5b92915050565b60805160a05160c05160e051611f1a62000502600039600081816101ea0152818161047d0152818161055e01528181610cb501528181610e6301526111830152600081816102e0015281816108650152818161092001528181610a8101528181610b1001528181610dbd01528181611099015281816112f0015261144601526000818161041601528181610603015281816106d5015281816109f201528181610d5c0152818161101b0152818161121e01526113c80152600081816103e20152818161077a01528181610f090152818161152a015281816116cc0152818161175f015281816117e10152818161186701526119a30152611f1a6000f3fe60806040526004361061016a5760003560e01c80638da5cb5b116100d1578063dd7c19c41161008a578063e639277d11610064578063e639277d146104de578063e7d90c02146104fe578063f2fde38b1461051e578063ff50abdc1461053e57600080fd5b8063dd7c19c414610438578063dfe6b5d614610465578063e21a0d71146104c957600080fd5b80638da5cb5b1461034f5780639639011e1461036d57806397206bd51461038d578063a3a9a6e5146103a3578063da37422a146103d0578063dbc162de1461040457600080fd5b8063406cf22911610123578063406cf229146102695780635b7c2dad1461027e578063715018a6146102b957806376d5de85146102ce57806379a8362c1461031a5780638a570a121461033a57600080fd5b80630ba36dcd146101765780630cf822cf146101b6578063204f83f9146101d857806329eb5f2c1461020c5780632f13b60c146102225780633317cfe61461025357600080fd5b3661017157005b600080fd5b34801561018257600080fd5b506101a3610191366004611d06565b60046020526000908152604090205481565b6040519081526020015b60405180910390f35b3480156101c257600080fd5b506101d66101d1366004611d28565b610554565b005b3480156101e457600080fd5b506101a37f000000000000000000000000000000000000000000000000000000000000000081565b34801561021857600080fd5b506101a360075481565b34801561022e57600080fd5b5060015461024390600160a01b900460ff1681565b60405190151581526020016101ad565b34801561025f57600080fd5b506101a360085481565b34801561027557600080fd5b506101a3610846565b34801561028a57600080fd5b5061029e610299366004611d06565b6109cc565b604080519384526020840192909252908201526060016101ad565b3480156102c557600080fd5b506101d6610b85565b3480156102da57600080fd5b506103027f000000000000000000000000000000000000000000000000000000000000000081565b6040516001600160a01b0390911681526020016101ad565b34801561032657600080fd5b506101d6610335366004611d28565b610b99565b34801561034657600080fd5b506101d6610ba6565b34801561035b57600080fd5b506001546001600160a01b0316610302565b34801561037957600080fd5b506101d6610388366004611d41565b610c81565b34801561039957600080fd5b506101a360035481565b3480156103af57600080fd5b506101a36103be366004611d06565b60066020526000908152604090205481565b3480156103dc57600080fd5b506103027f000000000000000000000000000000000000000000000000000000000000000081565b34801561041057600080fd5b506103027f000000000000000000000000000000000000000000000000000000000000000081565b34801561044457600080fd5b506101a3610453366004611d06565b60056020526000908152604090205481565b34801561047157600080fd5b506002546003546001547f000000000000000000000000000000000000000000000000000000000000000090600160a01b900460ff1660408051948552602085019390935291830152151560608201526080016101ad565b3480156104d557600080fd5b506101d6610cb3565b3480156104ea57600080fd5b506101d66104f9366004611d28565b610e59565b34801561050a57600080fd5b506101d6610519366004611d28565b611179565b34801561052a57600080fd5b506101d6610539366004611d06565b6115e5565b34801561054a57600080fd5b506101a360025481565b61055c61165b565b7f00000000000000000000000000000000000000000000000000000000000000004210156105cc5760405162461bcd60e51b815260206004820152601860248201527710dbdb9d1c9858dd081b9bdd081e595d081b585d1d5c995960421b60448201526064015b60405180910390fd5b600081116105ec5760405162461bcd60e51b81526004016105c390611d6b565b6040516370a0823160e01b815233600482015281907f00000000000000000000000000000000000000000000000000000000000000006001600160a01b0316906370a0823190602401602060405180830381865afa158015610652573d6000803e3d6000fd5b505050506040513d601f19601f820116820180604052508101906106769190611da2565b10156106be5760405162461bcd60e51b8152602060048201526017602482015276496e73756666696369656e742050542062616c616e636560481b60448201526064016105c3565b604051632770a7eb60e21b81526001600160a01b037f00000000000000000000000000000000000000000000000000000000000000001690639dc29fac9061070c9033908590600401611dbb565b600060405180830381600087803b15801561072657600080fd5b505af115801561073a573d6000803e3d6000fd5b5050336000908152600560205260408120805485945090925061075e908490611dea565b909155505060405163a9059cbb60e01b81526001600160a01b037f0000000000000000000000000000000000000000000000000000000000000000169063a9059cbb906107b19033908590600401611dbb565b6020604051808303816000875af11580156107d0573d6000803e3d6000fd5b505050506040513d601f19601f820116820180604052508101906107f49190611e03565b50604080518281526000602082015290810182905233907fbd5034ffbd47e4e72a94baa2cdb74c6fad73cb3bcdc13036b72ec8306f5a7646906060015b60405180910390a26108436001600055565b50565b600061085061165b565b60405163763cbfe160e11b81523360048201527f00000000000000000000000000000000000000000000000000000000000000006001600160a01b03169063ec797fc290602401602060405180830381865afa1580156108b4573d6000803e3d6000fd5b505050506040513d601f19601f820116820180604052508101906108d89190611da2565b90506000811161091e5760405162461bcd60e51b81526020600482015260116024820152704e6f207969656c6420746f20636c61696d60781b60448201526064016105c3565b7f00000000000000000000000000000000000000000000000000000000000000006001600160a01b031663406cf2296040518163ffffffff1660e01b81526004016020604051808303816000875af115801561097e573d6000803e3d6000fd5b505050506040513d601f19601f820116820180604052508101906109a29190611da2565b506109ad33826116b4565b80600360008282546109bf9190611e25565b9091555050600160005590565b6040516370a0823160e01b81526001600160a01b038281166004830152600091829182917f0000000000000000000000000000000000000000000000000000000000000000909116906370a0823190602401602060405180830381865afa158015610a3b573d6000803e3d6000fd5b505050506040513d601f19601f82011682018060405250810190610a5f9190611da2565b6040516370a0823160e01b81526001600160a01b0386811660048301529194507f0000000000000000000000000000000000000000000000000000000000000000909116906370a0823190602401602060405180830381865afa158015610aca573d6000803e3d6000fd5b505050506040513d601f19601f82011682018060405250810190610aee9190611da2565b60405163763cbfe160e11b81526001600160a01b0386811660048301529193507f00000000000000000000000000000000000000000000000000000000000000009091169063ec797fc290602401602060405180830381865afa158015610b59573d6000803e3d6000fd5b505050506040513d601f19601f82011682018060405250810190610b7d9190611da2565b929491935050565b610b8d6118a6565b610b976000611900565b565b610ba16118a6565b600855565b610bae61165b565b600854600754610bbe9190611e25565b421015610c0d5760405162461bcd60e51b815260206004820181905260248201527f546f6f206561726c7920666f72207969656c6420646973747269627574696f6e60448201526064016105c3565b6000610c17611952565b90508015610c7657426007819055508060036000828254610c389190611e25565b9091555050604080518281524260208201527ffe4996cd48c364c468cee70dd6b9061874ff01b05c5ea49311cbcabd9b9cb615910160405180910390a15b50610b976001600055565b610c896118a6565b610caf610c9e6001546001600160a01b031690565b6001600160a01b0384169083611a34565b5050565b7f0000000000000000000000000000000000000000000000000000000000000000421015610d1e5760405162461bcd60e51b815260206004820152601860248201527710dbdb9d1c9858dd081b9bdd081e595d081b585d1d5c995960421b60448201526064016105c3565b600154600160a01b900460ff16610b97576001805460ff60a01b1916600160a01b1790556040805163e21a0d7160e01b815290516001600160a01b037f0000000000000000000000000000000000000000000000000000000000000000169163e21a0d7191600480830192600092919082900301818387803b158015610da357600080fd5b505af1158015610db7573d6000803e3d6000fd5b505050507f00000000000000000000000000000000000000000000000000000000000000006001600160a01b031663e21a0d716040518163ffffffff1660e01b8152600401600060405180830381600087803b158015610e1657600080fd5b505af1158015610e2a573d6000803e3d6000fd5b50506040517f5fd577d8130c17338cdc9a71c5ecb968493f211547b43025680f615f3e1e671f925060009150a1565b610e6161165b565b7f00000000000000000000000000000000000000000000000000000000000000004210610ec75760405162461bcd60e51b815260206004820152601460248201527310dbdb9d1c9858dd081a185cc81b585d1d5c995960621b60448201526064016105c3565b60008111610ee75760405162461bcd60e51b81526004016105c390611d6b565b6040516323b872dd60e01b8152336004820152306024820152604481018290527f00000000000000000000000000000000000000000000000000000000000000006001600160a01b0316906323b872dd906064016020604051808303816000875af1158015610f5a573d6000803e3d6000fd5b505050506040513d601f19601f82011682018060405250810190610f7e9190611e03565b503360009081526004602052604081208054839290610f9e908490611e25565b90915550503360009081526005602052604081208054839290610fc2908490611e25565b90915550503360009081526006602052604081208054839290610fe6908490611e25565b925050819055508060026000828254610fff9190611e25565b90915550506040516340c10f1960e01b81526001600160a01b037f000000000000000000000000000000000000000000000000000000000000000016906340c10f19906110529033908590600401611dbb565b600060405180830381600087803b15801561106c57600080fd5b505af1158015611080573d6000803e3d6000fd5b50506040516340c10f1960e01b81526001600160a01b037f00000000000000000000000000000000000000000000000000000000000000001692506340c10f1991506110d29033908590600401611dbb565b600060405180830381600087803b1580156110ec57600080fd5b505af1158015611100573d6000803e3d6000fd5b50506040518381523392507fe1fffcc4923d04b559f4d29a8bfc6cda04eb5b0d3c460751c2402c5c5cc9109c915060200160405180910390a2604080518281526020810183905290810182905233907ff66885c33d648fcd0d97e0f2a18e30102169c22763473af0fb716f11b4a17dd690606001610831565b61118161165b565b7f000000000000000000000000000000000000000000000000000000000000000042106111e75760405162461bcd60e51b815260206004820152601460248201527310dbdb9d1c9858dd081a185cc81b585d1d5c995960621b60448201526064016105c3565b600081116112075760405162461bcd60e51b81526004016105c390611d6b565b6040516370a0823160e01b815233600482015281907f00000000000000000000000000000000000000000000000000000000000000006001600160a01b0316906370a0823190602401602060405180830381865afa15801561126d573d6000803e3d6000fd5b505050506040513d601f19601f820116820180604052508101906112919190611da2565b10156112d95760405162461bcd60e51b8152602060048201526017602482015276496e73756666696369656e742050542062616c616e636560481b60448201526064016105c3565b6040516370a0823160e01b815233600482015281907f00000000000000000000000000000000000000000000000000000000000000006001600160a01b0316906370a0823190602401602060405180830381865afa15801561133f573d6000803e3d6000fd5b505050506040513d601f19601f820116820180604052508101906113639190611da2565b10156113b15760405162461bcd60e51b815260206004820152601760248201527f496e73756666696369656e742059542062616c616e636500000000000000000060448201526064016105c3565b604051632770a7eb60e21b81526001600160a01b037f00000000000000000000000000000000000000000000000000000000000000001690639dc29fac906113ff9033908590600401611dbb565b600060405180830381600087803b15801561141957600080fd5b505af115801561142d573d6000803e3d6000fd5b5050604051632770a7eb60e21b81526001600160a01b037f0000000000000000000000000000000000000000000000000000000000000000169250639dc29fac915061147f9033908590600401611dbb565b600060405180830381600087803b15801561149957600080fd5b505af11580156114ad573d6000803e3d6000fd5b505033600090815260056020526040812080548594509092506114d1908490611dea565b909155505033600090815260066020526040812080548392906114f5908490611dea565b92505081905550806002600082825461150e9190611dea565b909155505060405163a9059cbb60e01b81526001600160a01b037f0000000000000000000000000000000000000000000000000000000000000000169063a9059cbb906115619033908590600401611dbb565b6020604051808303816000875af1158015611580573d6000803e3d6000fd5b505050506040513d601f19601f820116820180604052508101906115a49190611e03565b50604080518281526020810183905290810182905233907fbd5034ffbd47e4e72a94baa2cdb74c6fad73cb3bcdc13036b72ec8306f5a764690606001610831565b6115ed6118a6565b6001600160a01b0381166116525760405162461bcd60e51b815260206004820152602660248201527f4f776e61626c653a206e6577206f776e657220697320746865207a65726f206160448201526564647265737360d01b60648201526084016105c3565b61084381611900565b6002600054036116ad5760405162461bcd60e51b815260206004820152601f60248201527f5265656e7472616e637947756172643a207265656e7472616e742063616c6c0060448201526064016105c3565b6002600055565b6040516370a0823160e01b81523060048201526000907f00000000000000000000000000000000000000000000000000000000000000006001600160a01b0316906370a0823190602401602060405180830381865afa15801561171b573d6000803e3d6000fd5b505050506040513d601f19601f8201168201806040525081019061173f9190611da2565b90508181106117df5760405163a9059cbb60e01b81526001600160a01b037f0000000000000000000000000000000000000000000000000000000000000000169063a9059cbb906117969086908690600401611dbb565b6020604051808303816000875af11580156117b5573d6000803e3d6000fd5b505050506040513d601f19601f820116820180604052508101906117d99190611e03565b50505050565b7f00000000000000000000000000000000000000000000000000000000000000006001600160a01b031663d0e30db0836040518263ffffffff1660e01b81526004016000604051808303818588803b15801561183a57600080fd5b505af115801561184e573d6000803e3d6000fd5b505060405163a9059cbb60e01b81526001600160a01b037f000000000000000000000000000000000000000000000000000000000000000016935063a9059cbb9250611796915086908690600401611dbb565b505050565b6001546001600160a01b03163314610b975760405162461bcd60e51b815260206004820181905260248201527f4f776e61626c653a2063616c6c6572206973206e6f7420746865206f776e657260448201526064016105c3565b600180546001600160a01b038381166001600160a01b0319831681179093556040519116919082907f8be0079c531659141344cd1fd0a4f28419497f9722a3daafe3b4186f6b6457e090600090a35050565b60006002546000036119645750600090565b618e9460025460056119769190611e38565b6119809190611e4f565b6040516370a0823160e01b81523060048201529091506000906001600160a01b037f000000000000000000000000000000000000000000000000000000000000000016906370a0823190602401602060405180830381865afa1580156119ea573d6000803e3d6000fd5b505050506040513d601f19601f82011682018060405250810190611a0e9190611da2565b9050611a1b600a82611e4f565b821115611a3057611a2d600a82611e4f565b91505b5090565b6118a18363a9059cbb60e01b8484604051602401611a53929190611dbb565b60408051601f198184030181529190526020810180516001600160e01b03166001600160e01b0319909316929092179091526000611ada826040518060400160405280602081526020017f5361666545524332303a206c6f772d6c6576656c2063616c6c206661696c6564815250856001600160a01b0316611b5a9092919063ffffffff16565b9050805160001480611afb575080806020019051810190611afb9190611e03565b6118a15760405162461bcd60e51b815260206004820152602a60248201527f5361666545524332303a204552433230206f7065726174696f6e20646964206e6044820152691bdd081cdd58d8d9595960b21b60648201526084016105c3565b6060611b698484600085611b71565b949350505050565b606082471015611bd25760405162461bcd60e51b815260206004820152602660248201527f416464726573733a20696e73756666696369656e742062616c616e636520666f6044820152651c8818d85b1b60d21b60648201526084016105c3565b600080866001600160a01b03168587604051611bee9190611e95565b60006040518083038185875af1925050503d8060008114611c2b576040519150601f19603f3d011682016040523d82523d6000602084013e611c30565b606091505b5091509150611c4187838387611c4c565b979650505050505050565b60608315611cbb578251600003611cb4576001600160a01b0385163b611cb45760405162461bcd60e51b815260206004820152601d60248201527f416464726573733a2063616c6c20746f206e6f6e2d636f6e747261637400000060448201526064016105c3565b5081611b69565b611b698383815115611cd05781518083602001fd5b8060405162461bcd60e51b81526004016105c39190611eb1565b80356001600160a01b0381168114611d0157600080fd5b919050565b600060208284031215611d1857600080fd5b611d2182611cea565b9392505050565b600060208284031215611d3a57600080fd5b5035919050565b60008060408385031215611d5457600080fd5b611d5d83611cea565b946020939093013593505050565b6020808252601d908201527f416d6f756e74206d7573742062652067726561746572207468616e2030000000604082015260600190565b600060208284031215611db457600080fd5b5051919050565b6001600160a01b03929092168252602082015260400190565b634e487b7160e01b600052601160045260246000fd5b81810381811115611dfd57611dfd611dd4565b92915050565b600060208284031215611e1557600080fd5b81518015158114611d2157600080fd5b80820180821115611dfd57611dfd611dd4565b8082028115828204841417611dfd57611dfd611dd4565b600082611e6c57634e487b7160e01b600052601260045260246000fd5b500490565b60005b83811015611e8c578181015183820152602001611e74565b50506000910152565b60008251611ea7818460208701611e71565b9190910192915050565b6020815260008251806020840152611ed0816040850160208701611e71565b601f01601f1916919091016040019291505056fea264697066735822122067e5198ddd1d428e385c0c4cf9f07ea5e97d89af26f9df2ce3f9cfc9775f861364736f6c6343000811003360c06040523480156200001157600080fd5b506040516200156a3803806200156a8339810160408190526200003491620001a3565b83836003620000448382620002c5565b506004620000538282620002c5565b505060016005555062000066336200008c565b6001600160a01b0390911660805260a05250506008805460ff60a01b1916905562000391565b600680546001600160a01b038381166001600160a01b0319831681179093556040519116919082907f8be0079c531659141344cd1fd0a4f28419497f9722a3daafe3b4186f6b6457e090600090a35050565b634e487b7160e01b600052604160045260246000fd5b600082601f8301126200010657600080fd5b81516001600160401b0380821115620001235762000123620000de565b604051601f8301601f19908116603f011681019082821181831017156200014e576200014e620000de565b816040528381526020925086838588010111156200016b57600080fd5b600091505b838210156200018f578582018301518183018401529082019062000170565b600093810190920192909252949350505050565b60008060008060808587031215620001ba57600080fd5b84516001600160401b0380821115620001d257600080fd5b620001e088838901620000f4565b95506020870151915080821115620001f757600080fd5b506200020687828801620000f4565b604087015190945090506001600160a01b03811681146200022657600080fd5b6060959095015193969295505050565b600181811c908216806200024b57607f821691505b6020821081036200026c57634e487b7160e01b600052602260045260246000fd5b50919050565b601f821115620002c057600081815260208120601f850160051c810160208610156200029b5750805b601f850160051c820191505b81811015620002bc57828155600101620002a7565b5050505b505050565b81516001600160401b03811115620002e157620002e1620000de565b620002f981620002f2845462000236565b8462000272565b602080601f831160018114620003315760008415620003185750858301515b600019600386901b1c1916600185901b178555620002bc565b600085815260208120601f198616915b82811015620003625788860151825594840194600190910190840162000341565b5085821015620003815787850151600019600388901b60f8161c191681555b5050505050600190811b01905550565b60805160a051611190620003da600039600081816101eb0152818161035d01528181610556015281816105870152818161060c01526108b9015260006102cf01526111906000f3fe608060405234801561001057600080fd5b506004361061018e5760003560e01c8063715018a6116100de5780639dc29fac11610097578063a9059cbb11610071578063a9059cbb14610397578063dd62ed3e146103aa578063e21a0d71146103bd578063f2fde38b146103c557600080fd5b80639dc29fac14610348578063a10932951461035b578063a457c2d71461038457600080fd5b8063715018a6146102c25780637158da7c146102ca578063717da0b21461030957806376d5de851461031c5780638da5cb5b1461032f57806395d89b411461034057600080fd5b80632f13b60c1161014b5780633cb3c4fd116101255780633cb3c4fd1461026b57806340c10f191461027357806348cd7c111461028657806370a082311461029957600080fd5b80632f13b60c14610235578063313ce56714610249578063395093511461025857600080fd5b806306fdde0314610193578063095ea7b3146101b157806318160ddd146101d4578063204f83f9146101e657806323b872dd1461020d57806323ffce8514610220575b600080fd5b61019b6103d8565b6040516101a89190610fbf565b60405180910390f35b6101c46101bf366004611029565b61046a565b60405190151581526020016101a8565b6002545b6040519081526020016101a8565b6101d87f000000000000000000000000000000000000000000000000000000000000000081565b6101c461021b366004611053565b610484565b61023361022e36600461108f565b6104a8565b005b6008546101c490600160a01b900460ff1681565b604051601281526020016101a8565b6101c4610266366004611029565b610530565b6101d8610552565b610233610281366004611029565b6105b0565b61023361029436600461108f565b6106be565b6101d86102a736600461108f565b6001600160a01b031660009081526020819052604090205490565b610233610741565b6102f17f000000000000000000000000000000000000000000000000000000000000000081565b6040516001600160a01b0390911681526020016101a8565b6008546102f1906001600160a01b031681565b6007546102f1906001600160a01b031681565b6006546001600160a01b03166102f1565b61019b610755565b610233610356366004611029565b610764565b7f00000000000000000000000000000000000000000000000000000000000000004210156101c4565b6101c4610392366004611029565b610803565b6101c46103a5366004611029565b61087e565b6101d86103b83660046110b1565b61088c565b6102336108b7565b6102336103d336600461108f565b61096e565b6060600380546103e7906110e4565b80601f0160208091040260200160405190810160405280929190818152602001828054610413906110e4565b80156104605780601f1061043557610100808354040283529160200191610460565b820191906000526020600020905b81548152906001019060200180831161044357829003601f168201915b5050505050905090565b6000336104788185856109e7565b60019150505b92915050565b600033610492858285610b0c565b61049d858585610b86565b506001949350505050565b6104b0610d2a565b6007546001600160a01b03161561050e5760405162461bcd60e51b815260206004820152601760248201527f5969656c6420746f6b656e20616c72656164792073657400000000000000000060448201526064015b60405180910390fd5b600780546001600160a01b0319166001600160a01b0392909216919091179055565b600033610478818585610543838361088c565b61054d9190611134565b6109e7565b60007f000000000000000000000000000000000000000000000000000000000000000042106105815750600090565b6105ab427f0000000000000000000000000000000000000000000000000000000000000000611147565b905090565b6008546001600160a01b0316331461060a5760405162461bcd60e51b815260206004820152601c60248201527f4f6e6c79207969656c642073706c69747465722063616e2063616c6c000000006044820152606401610505565b7f0000000000000000000000000000000000000000000000000000000000000000421061066d5760405162461bcd60e51b8152602060048201526011602482015270151bdad95b881a185cc81b585d1d5c9959607a1b6044820152606401610505565b6106778282610d84565b816001600160a01b03167f0f6798a560793a54c3bcfe86a93cde1e73087d944c0ea20544137d4121396885826040516106b291815260200190565b60405180910390a25050565b6106c6610d2a565b6008546001600160a01b03161561071f5760405162461bcd60e51b815260206004820152601a60248201527f5969656c642073706c697474657220616c7265616479207365740000000000006044820152606401610505565b600880546001600160a01b0319166001600160a01b0392909216919091179055565b610749610d2a565b6107536000610e43565b565b6060600480546103e7906110e4565b6008546001600160a01b031633146107be5760405162461bcd60e51b815260206004820152601c60248201527f4f6e6c79207969656c642073706c69747465722063616e2063616c6c000000006044820152606401610505565b6107c88282610e95565b816001600160a01b03167fcc16f5dbb4873280815c1ee09dbd06736cffcc184412cf7a71a0fdb75d397ca5826040516106b291815260200190565b60003381610811828661088c565b9050838110156108715760405162461bcd60e51b815260206004820152602560248201527f45524332303a2064656372656173656420616c6c6f77616e63652062656c6f77604482015264207a65726f60d81b6064820152608401610505565b61049d82868684036109e7565b600033610478818585610b86565b6001600160a01b03918216600090815260016020908152604080832093909416825291909152205490565b7f000000000000000000000000000000000000000000000000000000000000000042101561091f5760405162461bcd60e51b8152602060048201526015602482015274151bdad95b881b9bdd081e595d081b585d1d5c9959605a1b6044820152606401610505565b600854600160a01b900460ff16610753576008805460ff60a01b1916600160a01b1790556040517f5fd577d8130c17338cdc9a71c5ecb968493f211547b43025680f615f3e1e671f90600090a1565b610976610d2a565b6001600160a01b0381166109db5760405162461bcd60e51b815260206004820152602660248201527f4f776e61626c653a206e6577206f776e657220697320746865207a65726f206160448201526564647265737360d01b6064820152608401610505565b6109e481610e43565b50565b6001600160a01b038316610a495760405162461bcd60e51b8152602060048201526024808201527f45524332303a20617070726f76652066726f6d20746865207a65726f206164646044820152637265737360e01b6064820152608401610505565b6001600160a01b038216610aaa5760405162461bcd60e51b815260206004820152602260248201527f45524332303a20617070726f766520746f20746865207a65726f206164647265604482015261737360f01b6064820152608401610505565b6001600160a01b0383811660008181526001602090815260408083209487168084529482529182902085905590518481527f8c5be1e5ebec7d5bd14f71427d1e84f3dd0314c0f7b2291e5b200ac8c7c3b92591015b60405180910390a3505050565b6000610b18848461088c565b90506000198114610b805781811015610b735760405162461bcd60e51b815260206004820152601d60248201527f45524332303a20696e73756666696369656e7420616c6c6f77616e63650000006044820152606401610505565b610b8084848484036109e7565b50505050565b6001600160a01b038316610bea5760405162461bcd60e51b815260206004820152602560248201527f45524332303a207472616e736665722066726f6d20746865207a65726f206164604482015264647265737360d81b6064820152608401610505565b6001600160a01b038216610c4c5760405162461bcd60e51b815260206004820152602360248201527f45524332303a207472616e7366657220746f20746865207a65726f206164647260448201526265737360e81b6064820152608401610505565b6001600160a01b03831660009081526020819052604090205481811015610cc45760405162461bcd60e51b815260206004820152602660248201527f45524332303a207472616e7366657220616d6f756e7420657863656564732062604482015265616c616e636560d01b6064820152608401610505565b6001600160a01b03848116600081815260208181526040808320878703905593871680835291849020805487019055925185815290927fddf252ad1be2c89b69c2b068fc378daa952ba7f163c4a11628f55a4df523b3ef910160405180910390a3610b80565b6006546001600160a01b031633146107535760405162461bcd60e51b815260206004820181905260248201527f4f776e61626c653a2063616c6c6572206973206e6f7420746865206f776e65726044820152606401610505565b6001600160a01b038216610dda5760405162461bcd60e51b815260206004820152601f60248201527f45524332303a206d696e7420746f20746865207a65726f2061646472657373006044820152606401610505565b8060026000828254610dec9190611134565b90915550506001600160a01b038216600081815260208181526040808320805486019055518481527fddf252ad1be2c89b69c2b068fc378daa952ba7f163c4a11628f55a4df523b3ef910160405180910390a35050565b600680546001600160a01b038381166001600160a01b0319831681179093556040519116919082907f8be0079c531659141344cd1fd0a4f28419497f9722a3daafe3b4186f6b6457e090600090a35050565b6001600160a01b038216610ef55760405162461bcd60e51b815260206004820152602160248201527f45524332303a206275726e2066726f6d20746865207a65726f206164647265736044820152607360f81b6064820152608401610505565b6001600160a01b03821660009081526020819052604090205481811015610f695760405162461bcd60e51b815260206004820152602260248201527f45524332303a206275726e20616d6f756e7420657863656564732062616c616e604482015261636560f01b6064820152608401610505565b6001600160a01b0383166000818152602081815260408083208686039055600280548790039055518581529192917fddf252ad1be2c89b69c2b068fc378daa952ba7f163c4a11628f55a4df523b3ef9101610aff565b600060208083528351808285015260005b81811015610fec57858101830151858201604001528201610fd0565b506000604082860101526040601f19601f8301168501019250505092915050565b80356001600160a01b038116811461102457600080fd5b919050565b6000806040838503121561103c57600080fd5b6110458361100d565b946020939093013593505050565b60008060006060848603121561106857600080fd5b6110718461100d565b925061107f6020850161100d565b9150604084013590509250925092565b6000602082840312156110a157600080fd5b6110aa8261100d565b9392505050565b600080604083850312156110c457600080fd5b6110cd8361100d565b91506110db6020840161100d565b90509250929050565b600181811c908216806110f857607f821691505b60208210810361111857634e487b7160e01b600052602260045260246000fd5b50919050565b634e487b7160e01b600052601160045260246000fd5b8082018082111561047e5761047e61111e565b8181038181111561047e5761047e61111e56fea2646970667358221220a63efd81e7d0e6d0a6f8e31428f786968fb355ab4ecb8d913ebddfec0ef1a49b64736f6c6343000811003360c06040526101f4600f553480156200001757600080fd5b5060405162001bf238038062001bf28339810160408190526200003a91620001ad565b838360036200004a8382620002cf565b506004620000598282620002cf565b50506001600555506200006c3362000096565b6001600160a01b0390911660805260a05250506008805460ff60a01b1916905542600e556200039b565b600680546001600160a01b038381166001600160a01b0319831681179093556040519116919082907f8be0079c531659141344cd1fd0a4f28419497f9722a3daafe3b4186f6b6457e090600090a35050565b634e487b7160e01b600052604160045260246000fd5b600082601f8301126200011057600080fd5b81516001600160401b03808211156200012d576200012d620000e8565b604051601f8301601f19908116603f01168101908282118183101715620001585762000158620000e8565b816040528381526020925086838588010111156200017557600080fd5b600091505b838210156200019957858201830151818301840152908201906200017a565b600093810190920192909252949350505050565b60008060008060808587031215620001c457600080fd5b84516001600160401b0380821115620001dc57600080fd5b620001ea88838901620000fe565b955060208701519150808211156200020157600080fd5b506200021087828801620000fe565b604087015190945090506001600160a01b03811681146200023057600080fd5b6060959095015193969295505050565b600181811c908216806200025557607f821691505b6020821081036200027657634e487b7160e01b600052602260045260246000fd5b50919050565b601f821115620002ca57600081815260208120601f850160051c81016020861015620002a55750805b601f850160051c820191505b81811015620002c657828155600101620002b1565b5050505b505050565b81516001600160401b03811115620002eb57620002eb620000e8565b6200030381620002fc845462000240565b846200027c565b602080601f8311600181146200033b5760008415620003225750858301515b600019600386901b1c1916600185901b178555620002c6565b600085815260208120601f198616915b828110156200036c578886015182559484019460019091019084016200034b565b50858210156200038b5787850151600019600388901b60f8161c191681555b5050505050600190811b01905550565b60805160a05161180e620003e46000396000818161028e0152818161042e01528181610651015281816106820152818161074b0152610ada01526000610397015261180e6000f3fe608060405234801561001057600080fd5b506004361061021c5760003560e01c80637158da7c11610125578063a9059cbb116100ad578063dbc162de1161007c578063dbc162de146104ad578063dd62ed3e146104c0578063e21a0d71146104d3578063ec797fc2146104db578063f2fde38b146104ee57600080fd5b8063a9059cbb14610468578063b77cf9c61461047b578063b8a457c31461049b578063c8f33c91146104a457600080fd5b806395d89b41116100f457806395d89b41146103fe5780639dc29fac146104065780639ef1b22b14610419578063a10932951461042c578063a457c2d71461045557600080fd5b80637158da7c14610392578063717da0b2146103d15780638c825056146103e45780638da5cb5b146103ed57600080fd5b806339509351116101a8578063468a454411610177578063468a45441461033c57806348cd7c11146103455780636999ac931461035857806370a0823114610361578063715018a61461038a57600080fd5b806339509351146103065780633cb3c4fd14610319578063406cf2291461032157806340c10f191461032957600080fd5b8063204f83f9116101ef578063204f83f91461028957806323b872dd146102b05780632b240831146102c35780632f13b60c146102e3578063313ce567146102f757600080fd5b806306fdde0314610221578063095ea7b31461023f5780631411dab01461026257806318160ddd14610277575b600080fd5b610229610501565b60405161023691906115f0565b60405180910390f35b61025261024d366004611655565b610593565b6040519015158152602001610236565b61027561027036600461167f565b6105ad565b005b6002545b604051908152602001610236565b61027b7f000000000000000000000000000000000000000000000000000000000000000081565b6102526102be366004611698565b610607565b61027b6102d13660046116d4565b600a6020526000908152604090205481565b60085461025290600160a01b900460ff1681565b60405160128152602001610236565b610252610314366004611655565b61062b565b61027b61064d565b61027b6106ab565b610275610337366004611655565b6106ef565b61027b600d5481565b6102756103533660046116d4565b610831565b61027b600f5481565b61027b61036f3660046116d4565b6001600160a01b031660009081526020819052604090205490565b6102756108b4565b6103b97f000000000000000000000000000000000000000000000000000000000000000081565b6040516001600160a01b039091168152602001610236565b6008546103b9906001600160a01b031681565b61027b600b5481565b6006546001600160a01b03166103b9565b6102296108c8565b610275610414366004611655565b6108d7565b6102756104273660046116d4565b6109a1565b7f0000000000000000000000000000000000000000000000000000000000000000421015610252565b610252610463366004611655565b610a24565b610252610476366004611655565b610a9f565b61027b6104893660046116d4565b60096020526000908152604090205481565b61027b600c5481565b61027b600e5481565b6007546103b9906001600160a01b031681565b61027b6104ce3660046116f6565b610aad565b610275610ad8565b61027b6104e93660046116d4565b610b89565b6102756104fc3660046116d4565b610c73565b60606003805461051090611729565b80601f016020809104026020016040519081016040528092919081815260200182805461053c90611729565b80156105895780601f1061055e57610100808354040283529160200191610589565b820191906000526020600020905b81548152906001019060200180831161056c57829003601f168201915b5050505050905090565b6000336105a1818585610cec565b60019150505b92915050565b6105b5610e11565b6127108111156106025760405162461bcd60e51b81526020600482015260136024820152720b2d2cad8c840e4c2e8ca40e8dede40d0d2ced606b1b60448201526064015b60405180910390fd5b600f55565b600033610615858285610e6b565b610620858585610ee5565b506001949350505050565b6000336105a181858561063e8383610aad565b6106489190611779565b610cec565b60007f0000000000000000000000000000000000000000000000000000000000000000421061067c5750600090565b6106a6427f000000000000000000000000000000000000000000000000000000000000000061178c565b905090565b60006106b5611094565b336106be6110ed565b6001600160a01b038116156106d6576106d6816111d8565b6106df336112bf565b9150506106ec6001600555565b90565b6008546001600160a01b031633146107495760405162461bcd60e51b815260206004820152601c60248201527f4f6e6c79207969656c642073706c69747465722063616e2063616c6c0000000060448201526064016105f9565b7f000000000000000000000000000000000000000000000000000000000000000042106107ac5760405162461bcd60e51b8152602060048201526011602482015270151bdad95b881a185cc81b585d1d5c9959607a1b60448201526064016105f9565b816107b56110ed565b6001600160a01b038116156107cd576107cd816111d8565b6107d78383611354565b6001600160a01b03831660008181526009602052604090819020429055517f0f6798a560793a54c3bcfe86a93cde1e73087d944c0ea20544137d4121396885906108249085815260200190565b60405180910390a2505050565b610839610e11565b6008546001600160a01b0316156108925760405162461bcd60e51b815260206004820152601a60248201527f5969656c642073706c697474657220616c72656164792073657400000000000060448201526064016105f9565b600880546001600160a01b0319166001600160a01b0392909216919091179055565b6108bc610e11565b6108c6600061141f565b565b60606004805461051090611729565b6008546001600160a01b031633146109315760405162461bcd60e51b815260206004820152601c60248201527f4f6e6c79207969656c642073706c69747465722063616e2063616c6c0000000060448201526064016105f9565b8161093a6110ed565b6001600160a01b0381161561095257610952816111d8565b61095b836112bf565b506109668383611471565b826001600160a01b03167fcc16f5dbb4873280815c1ee09dbd06736cffcc184412cf7a71a0fdb75d397ca58360405161082491815260200190565b6109a9610e11565b6007546001600160a01b031615610a025760405162461bcd60e51b815260206004820152601b60248201527f5072696e636970616c20746f6b656e20616c726561647920736574000000000060448201526064016105f9565b600780546001600160a01b0319166001600160a01b0392909216919091179055565b60003381610a328286610aad565b905083811015610a925760405162461bcd60e51b815260206004820152602560248201527f45524332303a2064656372656173656420616c6c6f77616e63652062656c6f77604482015264207a65726f60d81b60648201526084016105f9565b6106208286868403610cec565b6000336105a1818585610ee5565b6001600160a01b03918216600090815260016020908152604080832093909416825291909152205490565b7f0000000000000000000000000000000000000000000000000000000000000000421015610b3a5760405162461bcd60e51b815260206004820152600f60248201526e139bdd081e595d081b585d1d5c9959608a1b60448201526064016105f9565b600854600160a01b900460ff166108c6576008805460ff60a01b1916600160a01b1790556040517f5fd577d8130c17338cdc9a71c5ecb968493f211547b43025680f615f3e1e671f90600090a1565b6001600160a01b038116600090815260208190526040812054600003610bb157506000919050565b6001600160a01b038216600090815260096020526040812054610bd4904261178c565b905080600003610bfb5750506001600160a01b03166000908152600a602052604090205490565b600064496cebb80082600f54610c26876001600160a01b031660009081526020819052604090205490565b610c30919061179f565b610c3a919061179f565b610c4491906117b6565b6001600160a01b0385166000908152600a6020526040902054909150610c6b908290611779565b949350505050565b610c7b610e11565b6001600160a01b038116610ce05760405162461bcd60e51b815260206004820152602660248201527f4f776e61626c653a206e6577206f776e657220697320746865207a65726f206160448201526564647265737360d01b60648201526084016105f9565b610ce98161141f565b50565b6001600160a01b038316610d4e5760405162461bcd60e51b8152602060048201526024808201527f45524332303a20617070726f76652066726f6d20746865207a65726f206164646044820152637265737360e01b60648201526084016105f9565b6001600160a01b038216610daf5760405162461bcd60e51b815260206004820152602260248201527f45524332303a20617070726f766520746f20746865207a65726f206164647265604482015261737360f01b60648201526084016105f9565b6001600160a01b0383811660008181526001602090815260408083209487168084529482529182902085905590518481527f8c5be1e5ebec7d5bd14f71427d1e84f3dd0314c0f7b2291e5b200ac8c7c3b92591015b60405180910390a3505050565b6006546001600160a01b031633146108c65760405162461bcd60e51b815260206004820181905260248201527f4f776e61626c653a2063616c6c6572206973206e6f7420746865206f776e657260448201526064016105f9565b6000610e778484610aad565b90506000198114610edf5781811015610ed25760405162461bcd60e51b815260206004820152601d60248201527f45524332303a20696e73756666696369656e7420616c6c6f77616e636500000060448201526064016105f9565b610edf8484848403610cec565b50505050565b6001600160a01b038316610f495760405162461bcd60e51b815260206004820152602560248201527f45524332303a207472616e736665722066726f6d20746865207a65726f206164604482015264647265737360d81b60648201526084016105f9565b6001600160a01b038216610fab5760405162461bcd60e51b815260206004820152602360248201527f45524332303a207472616e7366657220746f20746865207a65726f206164647260448201526265737360e81b60648201526084016105f9565b610fb68383836115a7565b6001600160a01b0383166000908152602081905260409020548181101561102e5760405162461bcd60e51b815260206004820152602660248201527f45524332303a207472616e7366657220616d6f756e7420657863656564732062604482015265616c616e636560d01b60648201526084016105f9565b6001600160a01b03848116600081815260208181526040808320878703905593871680835291849020805487019055925185815290927fddf252ad1be2c89b69c2b068fc378daa952ba7f163c4a11628f55a4df523b3ef910160405180910390a3610edf565b6002600554036110e65760405162461bcd60e51b815260206004820152601f60248201527f5265656e7472616e637947756172643a207265656e7472616e742063616c6c0060448201526064016105f9565b6002600555565b6002546000036110fd5742600e55565b6000600e544261110d919061178c565b90508015610ce957600064496cebb80082600f5461112a60025490565b611134919061179f565b61113e919061179f565b61114891906117b6565b905080600b600082825461115c9190611779565b909155505060025461117682670de0b6b3a764000061179f565b61118091906117b6565b600d60008282546111919190611779565b909155505042600e5580156111d4576040518181527fba940f7e525c0c7e2b83c7fbf8f07b95c7da51604106be88403040d914a6979b9060200160405180910390a15b5050565b6001600160a01b0381166000908152602081905260409020546000036111fb5750565b6001600160a01b03811660009081526009602052604081205461121e904261178c565b905080156111d457600064496cebb80082600f54611251866001600160a01b031660009081526020819052604090205490565b61125b919061179f565b611265919061179f565b61126f91906117b6565b6001600160a01b0384166000908152600a602052604081208054929350839290919061129c908490611779565b909155505050506001600160a01b03166000908152600960205260409020429055565b6001600160a01b0381166000908152600a6020526040902054801561134f576001600160a01b0382166000908152600a60205260408120819055600c805483929061130b908490611779565b90915550506040518181526001600160a01b038316907fc04825ba3f383b602255d2a13065a68e325c65c9e0ed5d031ea2b06f641873af9060200160405180910390a25b919050565b6001600160a01b0382166113aa5760405162461bcd60e51b815260206004820152601f60248201527f45524332303a206d696e7420746f20746865207a65726f20616464726573730060448201526064016105f9565b6113b6600083836115a7565b80600260008282546113c89190611779565b90915550506001600160a01b038216600081815260208181526040808320805486019055518481527fddf252ad1be2c89b69c2b068fc378daa952ba7f163c4a11628f55a4df523b3ef910160405180910390a35050565b600680546001600160a01b038381166001600160a01b0319831681179093556040519116919082907f8be0079c531659141344cd1fd0a4f28419497f9722a3daafe3b4186f6b6457e090600090a35050565b6001600160a01b0382166114d15760405162461bcd60e51b815260206004820152602160248201527f45524332303a206275726e2066726f6d20746865207a65726f206164647265736044820152607360f81b60648201526084016105f9565b6114dd826000836115a7565b6001600160a01b038216600090815260208190526040902054818110156115515760405162461bcd60e51b815260206004820152602260248201527f45524332303a206275726e20616d6f756e7420657863656564732062616c616e604482015261636560f01b60648201526084016105f9565b6001600160a01b0383166000818152602081815260408083208686039055600280548790039055518581529192917fddf252ad1be2c89b69c2b068fc378daa952ba7f163c4a11628f55a4df523b3ef9101610e04565b826115b06110ed565b6001600160a01b038116156115c8576115c8816111d8565b826115d16110ed565b6001600160a01b038116156115e9576115e9816111d8565b5050505050565b600060208083528351808285015260005b8181101561161d57858101830151858201604001528201611601565b506000604082860101526040601f19601f8301168501019250505092915050565b80356001600160a01b038116811461134f57600080fd5b6000806040838503121561166857600080fd5b6116718361163e565b946020939093013593505050565b60006020828403121561169157600080fd5b5035919050565b6000806000606084860312156116ad57600080fd5b6116b68461163e565b92506116c46020850161163e565b9150604084013590509250925092565b6000602082840312156116e657600080fd5b6116ef8261163e565b9392505050565b6000806040838503121561170957600080fd5b6117128361163e565b91506117206020840161163e565b90509250929050565b600181811c9082168061173d57607f821691505b60208210810361175d57634e487b7160e01b600052602260045260246000fd5b50919050565b634e487b7160e01b600052601160045260246000fd5b808201808211156105a7576105a7611763565b818103818111156105a7576105a7611763565b80820281158282048414176105a7576105a7611763565b6000826117d357634e487b7160e01b600052601260045260246000fd5b50049056fea2646970667358221220a9f4323d31b31ff017d3638beeb5d4b3c06724dc5f88557caf3da1652856d7c264736f6c63430008110033",
  "linkReferences": {},
  "deployedLinkReferences": {}
}