{
  "_format": "hh-sol-artifact-1",
  "contractName": "DIAOracle",
  "sourceName": "contracts/DIAOracle.sol",
  "abi": [
    {
      "inputs": [],
      "stateMutability": "nonpayable",
      "type": "constructor"
    },
    {
      "anonymous": false,
      "inputs": [
        {
          "indexed": true,
          "internalType": "address",
          "name": "newOracle",
          "type": "address"
        }
      ],
      "name": "DIAOracleUpdated",
      "type": "event"
    },
    {
      "anonymous": false,
      "inputs": [
        {
          "indexed": true,
          "internalType": "string",
          "name": "key",
          "type": "string"
        },
        {
          "indexed": false,
          "internalType": "uint256",
          "name": "heartbeat",
          "type": "uint256"
        }
      ],
      "name": "FeedAdded",
      "type": "event"
    },
    {
      "anonymous": false,
      "inputs": [
        {
          "indexed": true,
          "internalType": "string",
          "name": "key",
          "type": "string"
        }
      ],
      "name": "FeedRemoved",
      "type": "event"
    },
    {
      "anonymous": false,
      "inputs": [
        {
          "indexed": true,
          "internalType": "address",
          "name": "previousOwner",
          "type": "address"
        },
        {
          "indexed": true,
          "internalType": "address",
          "name": "newOwner",
          "type": "address"
        }
      ],
      "name": "OwnershipTransferred",
      "type": "event"
    },
    {
      "anonymous": false,
      "inputs": [
        {
          "indexed": true,
          "internalType": "string",
          "name": "key",
          "type": "string"
        },
        {
          "indexed": false,
          "internalType": "uint256",
          "name": "price",
          "type": "uint256"
        },
        {
          "indexed": false,
          "internalType": "uint256",
          "name": "timestamp",
          "type": "uint256"
        }
      ],
      "name": "PriceUpdated",
      "type": "event"
    },
    {
      "inputs": [],
      "name": "DEFAULT_HEARTBEAT",
      "outputs": [
        {
          "internalType": "uint256",
          "name": "",
          "type": "uint256"
        }
      ],
      "stateMutability": "view",
      "type": "function"
    },
    {
      "inputs": [],
      "name": "PRICE_DECIMALS",
      "outputs": [
        {
          "internalType": "uint256",
          "name": "",
          "type": "uint256"
        }
      ],
      "stateMutability": "view",
      "type": "function"
    },
    {
      "inputs": [
        {
          "internalType": "string",
          "name": "key",
          "type": "string"
        },
        {
          "internalType": "uint256",
          "name": "heartbeat",
          "type": "uint256"
        }
      ],
      "name": "addPriceFeed",
      "outputs": [],
      "stateMutability": "nonpayable",
      "type": "function"
    },
    {
      "inputs": [],
      "name": "diaOracleAddress",
      "outputs": [
        {
          "internalType": "address",
          "name": "",
          "type": "address"
        }
      ],
      "stateMutability": "view",
      "type": "function"
    },
    {
      "inputs": [
        {
          "internalType": "address",
          "name": "token",
          "type": "address"
        },
        {
          "internalType": "uint256",
          "name": "amount",
          "type": "uint256"
        }
      ],
      "name": "emergencyRecover",
      "outputs": [],
      "stateMutability": "nonpayable",
      "type": "function"
    },
    {
      "inputs": [
        {
          "internalType": "uint256",
          "name": "timeToMaturity",
          "type": "uint256"
        }
      ],
      "name": "getImpliedYieldRate",
      "outputs": [
        {
          "internalType": "uint256",
          "name": "yieldRate",
          "type": "uint256"
        }
      ],
      "stateMutability": "view",
      "type": "function"
    },
    {
      "inputs": [
        {
          "internalType": "string",
          "name": "key",
          "type": "string"
        }
      ],
      "name": "getLatestPrice",
      "outputs": [
        {
          "internalType": "uint256",
          "name": "price",
          "type": "uint256"
        }
      ],
      "stateMutability": "view",
      "type": "function"
    },
    {
      "inputs": [],
      "name": "getPTYTRatio",
      "outputs": [
        {
          "internalType": "uint256",
          "name": "ratio",
          "type": "uint256"
        }
      ],
      "stateMutability": "view",
      "type": "function"
    },
    {
      "inputs": [
        {
          "internalType": "string",
          "name": "key",
          "type": "string"
        }
      ],
      "name": "getPrice",
      "outputs": [
        {
          "internalType": "uint256",
          "name": "price",
          "type": "uint256"
        },
        {
          "internalType": "uint256",
          "name": "timestamp",
          "type": "uint256"
        }
      ],
      "stateMutability": "view",
      "type": "function"
    },
    {
      "inputs": [],
      "name": "getSupportedFeeds",
      "outputs": [
        {
          "internalType": "string[]",
          "name": "",
          "type": "string[]"
        }
      ],
      "stateMutability": "view",
      "type": "function"
    },
    {
      "inputs": [
        {
          "internalType": "string",
          "name": "key",
          "type": "string"
        }
      ],
      "name": "isPriceFresh",
      "outputs": [
        {
          "internalType": "bool",
          "name": "",
          "type": "bool"
        }
      ],
      "stateMutability": "view",
      "type": "function"
    },
    {
      "inputs": [],
      "name": "owner",
      "outputs": [
        {
          "internalType": "address",
          "name": "",
          "type": "address"
        }
      ],
      "stateMutability": "view",
      "type": "function"
    },
    {
      "inputs": [
        {
          "internalType": "string",
          "name": "",
          "type": "string"
        }
      ],
      "name": "priceFeeds",
      "outputs": [
        {
          "internalType": "uint256",
          "name": "price",
          "type": "uint256"
        },
        {
          "internalType": "uint256",
          "name": "timestamp",
          "type": "uint256"
        },
        {
          "internalType": "uint256",
          "name": "heartbeat",
          "type": "uint256"
        },
        {
          "internalType": "bool",
          "name": "isActive",
          "type": "bool"
        }
      ],
      "stateMutability": "view",
      "type": "function"
    },
    {
      "inputs": [
        {
          "internalType": "string",
          "name": "key",
          "type": "string"
        }
      ],
      "name": "removePriceFeed",
      "outputs": [],
      "stateMutability": "nonpayable",
      "type": "function"
    },
    {
      "inputs": [],
      "name": "renounceOwnership",
      "outputs": [],
      "stateMutability": "nonpayable",
      "type": "function"
    },
    {
      "inputs": [
        {
          "internalType": "address",
          "name": "_diaOracle",
          "type": "address"
        }
      ],
      "name": "setDIAOracle",
      "outputs": [],
      "stateMutability": "nonpayable",
      "type": "function"
    },
    {
      "inputs": [
        {
          "internalType": "uint256",
          "name": "",
          "type": "uint256"
        }
      ],
      "name": "supportedFeeds",
      "outputs": [
        {
          "internalType": "string",
          "name": "",
          "type": "string"
        }
      ],
      "stateMutability": "view",
      "type": "function"
    },
    {
      "inputs": [
        {
          "internalType": "address",
          "name": "newOwner",
          "type": "address"
        }
      ],
      "name": "transferOwnership",
      "outputs": [],
      "stateMutability": "nonpayable",
      "type": "function"
    },
    {
      "inputs": [
        {
          "internalType": "string",
          "name": "key",
          "type": "string"
        },
        {
          "internalType": "uint256",
          "name": "price",
          "type": "uint256"
        }
      ],
      "name": "updatePrice",
      "outputs": [],
      "stateMutability": "nonpayable",
      "type": "function"
    },
    {
      "inputs": [
        {
          "internalType": "string[]",
          "name": "keys",
          "type": "string[]"
        }
      ],
      "name": "updatePricesFromDIA",
      "outputs": [],
      "stateMutability": "nonpayable",
      "type": "function"
    }
  ],
  "bytecode": "0x60806040523480156200001157600080fd5b506200001d3362000150565b6001805560408051808201909152600781526612d1104bd554d160ca1b60208201526200004d90610e10620001a0565b60408051808201909152600b81526a14150b5dd2d1104bd554d160aa1b60208201526200007d90610e10620001a0565b60408051808201909152600b81526a16550b5dd2d1104bd554d160aa1b6020820152620000ad90610e10620001a0565b60408051808201909152600781526612d1104bd554d160ca1b6020820152620000df906706f05b59d3b2000062000363565b60408051808201909152600b81526a14150b5dd2d1104bd554d160aa1b602082015262000115906706a94d74f430000062000363565b60408051808201909152600b81526a16550b5dd2d1104bd554d160aa1b60208201526200014a9066470de4df82000062000363565b62000655565b600080546001600160a01b038381166001600160a01b0319831681178455604051919092169283917f8be0079c531659141344cd1fd0a4f28419497f9722a3daafe3b4186f6b6457e09190a35050565b600382604051620001b29190620004b3565b9081526040519081900360200190206003015460ff16156200021b5760405162461bcd60e51b815260206004820152601360248201527f4665656420616c7265616479206578697374730000000000000000000000000060448201526064015b60405180910390fd5b60008111620002615760405162461bcd60e51b8152602060048201526011602482015270125b9d985b1a59081a19585c9d1899585d607a1b604482015260640162000212565b604080516080810182526000808252602082015280820183905260016060820152905160039062000294908590620004b3565b908152604080516020928190038301902083518155918301516001808401919091559083015160028301556060909201516003909101805460ff19169115159190911790556004805491820181556000527f8a35acfbc15ff81a39ae7d344fd709f28e8600b4aa8c65c6b64bfe7fe36bd19b0162000313838262000589565b5081604051620003249190620004b3565b604051908190038120828252907fd4cea00ed71b35d1098d2858581631ae7cc43a468f7c44f43bb28cd2c8a6c543906020015b60405180910390a25050565b600382604051620003759190620004b3565b9081526040519081900360200190206003015460ff16620003d95760405162461bcd60e51b815260206004820152601560248201527f50726963652066656564206e6f74206163746976650000000000000000000000604482015260640162000212565b600081116200041b5760405162461bcd60e51b815260206004820152600d60248201526c496e76616c696420707269636560981b604482015260640162000212565b806003836040516200042e9190620004b3565b90815260405190819003602001812091909155429060039062000453908590620004b3565b9081526040519081900360200181206001019190915562000476908390620004b3565b60408051918290038220838352426020840152917f6e838f2a03741f5f2aff5480963b672fb0dd8430a4dc75db9b67ce009733c9fe910162000357565b6000825160005b81811015620004d65760208186018101518583015201620004ba565b506000920191825250919050565b634e487b7160e01b600052604160045260246000fd5b600181811c908216806200050f57607f821691505b6020821081036200053057634e487b7160e01b600052602260045260246000fd5b50919050565b601f8211156200058457600081815260208120601f850160051c810160208610156200055f5750805b601f850160051c820191505b8181101562000580578281556001016200056b565b5050505b505050565b81516001600160401b03811115620005a557620005a5620004e4565b620005bd81620005b68454620004fa565b8462000536565b602080601f831160018114620005f55760008415620005dc5750858301515b600019600386901b1c1916600185901b17855562000580565b600085815260208120601f198616915b82811015620006265788860151825594840194600190910190840162000605565b5085821015620006455787850151600019600388901b60f8161c191681555b5050505050600190811b01905550565b611aa780620006656000396000f3fe608060405234801561001057600080fd5b506004361061012c5760003560e01c8063a864cd95116100ad578063dd671f5011610071578063dd671f50146102dd578063f1a640f814610300578063f2fde38b14610308578063f66a1b711461031b578063f9a3f5ed1461032e57600080fd5b8063a864cd951461021a578063a8a9c0e31461022f578063c8a84d9414610242578063cb8ae86c14610262578063db904dfa146102ca57600080fd5b806357fc3614116100f457806357fc3614146101b0578063715018a6146101c35780637d07db3c146101cb5780638da5cb5b146101f65780639639011e1461020757600080fd5b8063041bfbd51461013157806308453cf8146101465780634a432a4614610162578063524f38891461017557806352d5880d1461019d575b600080fd5b61014461013f36600461140b565b610336565b005b61014f610e1081565b6040519081526020015b60405180910390f35b6101446101703660046114ce565b6104d4565b610188610183366004611513565b6104ea565b60408051928352602083019190915201610159565b6101446101ab3660046114ce565b6105c9565b6101446101be36600461156c565b6105db565b61014461067c565b6002546101de906001600160a01b031681565b6040516001600160a01b039091168152602001610159565b6000546001600160a01b03166101de565b61014461021536600461158e565b610690565b6102226107df565b6040516101599190611608565b61014f61023d36600461166a565b6108b8565b61025561025036600461166a565b610a83565b6040516101599190611683565b6102a8610270366004611513565b805160208183018101805160038083529383019290940191909120929052815460018301546002840154939092015490929060ff1684565b6040805194855260208501939093529183015215156060820152608001610159565b6101446102d8366004611513565b610b2f565b6102f06102eb366004611513565b610cf8565b6040519015158152602001610159565b61014f601281565b61014461031636600461156c565b610d7c565b61014f610329366004611513565b610df2565b61014f610e6f565b61033e610f47565b6002546001600160a01b03166103905760405162461bcd60e51b81526020600482015260126024820152711112504813dc9858db19481b9bdd081cd95d60721b60448201526064015b60405180910390fd5b6002546001600160a01b031660005b82518110156104c65760008382815181106103bc576103bc611696565b602002602001015190506003816040516103d691906116ac565b9081526040519081900360200190206003015460ff166104085760405162461bcd60e51b8152600401610387906116c8565b6040516304b01c2560e51b81526001600160a01b0384169063960384a090610434908490600401611683565b6040805180830381865afa92505050801561046c575060408051601f3d908101601f191682019092526104699181019061170e565b60015b61047657506104b4565b6000826001600160801b031611801561049857506000816001600160801b0316115b156104b0576104b083836001600160801b0316610fa0565b5050505b806104be81611757565b91505061039f565b50506104d160018055565b50565b6104dc6110bb565b6104e68282610fa0565b5050565b60008060006003846040516104ff91906116ac565b908152604080519182900360209081018320608084018352805484526001810154918401919091526002810154918301919091526003015460ff161515606082018190529091506105625760405162461bcd60e51b8152600401610387906116c8565b604081015160208201516105769042611770565b11156105b75760405162461bcd60e51b815260206004820152601060248201526f50726963652064617461207374616c6560801b6044820152606401610387565b80516020909101519094909350915050565b6105d16110bb565b6104e68282611115565b6105e36110bb565b6001600160a01b0381166106325760405162461bcd60e51b8152602060048201526016602482015275496e76616c6964206f7261636c65206164647265737360501b6044820152606401610387565b600280546001600160a01b0319166001600160a01b0383169081179091556040517f535b93d9e0be2f8cf2ba1e1f1f8c174e03aa29676b42aad916bc7190d29abe9090600090a250565b6106846110bb565b61068e60006112b6565b565b6106986110bb565b6001600160a01b0382166106e457600080546040516001600160a01b039091169183156108fc02918491818181858888f193505050501580156106df573d6000803e3d6000fd5b505050565b6000826001600160a01b03166107026000546001600160a01b031690565b6040516001600160a01b0390911660248201526044810184905260640160408051601f198184030181529181526020820180516001600160e01b031663a9059cbb60e01b1790525161075491906116ac565b6000604051808303816000865af19150503d8060008114610791576040519150601f19603f3d011682016040523d82523d6000602084013e610796565b606091505b50509050806106df5760405162461bcd60e51b8152602060048201526015602482015274151bdad95b881d1c985b9cd9995c8819985a5b1959605a1b6044820152606401610387565b60606004805480602002602001604051908101604052809291908181526020016000905b828210156108af57838290600052602060002001805461082290611789565b80601f016020809104026020016040519081016040528092919081815260200182805461084e90611789565b801561089b5780601f106108705761010080835404028352916020019161089b565b820191906000526020600020905b81548152906001019060200180831161087e57829003601f168201915b505050505081526020019060010190610803565b50505050905090565b60008082116109095760405162461bcd60e51b815260206004820152601860248201527f496e76616c69642074696d6520746f206d6174757269747900000000000000006044820152606401610387565b6000600360405161092b906a14150b5dd2d1104bd554d160aa1b8152600b0190565b90815260405190819003602001812054915060009060039061095a906612d1104bd554d160ca1b815260070190565b908152604051908190036020019020549050811580159061097b5750600081115b6109b85760405162461bcd60e51b815260206004820152600e60248201526d496e76616c69642070726963657360901b6044820152606401610387565b80821115610a125760405162461bcd60e51b815260206004820152602160248201527f50542070726963652063616e6e6f742065786365656420756e6465726c79696e6044820152606760f81b6064820152608401610387565b600082610a1f8184611770565b610a3190670de0b6b3a76400006117c3565b610a3b91906117da565b9050600085610a4e836301e133806117c3565b610a5891906117da565b9050670de0b6b3a7640000610a6f826127106117c3565b610a7991906117da565b9695505050505050565b60048181548110610a9357600080fd5b906000526020600020016000915090508054610aae90611789565b80601f0160208091040260200160405190810160405280929190818152602001828054610ada90611789565b8015610b275780601f10610afc57610100808354040283529160200191610b27565b820191906000526020600020905b815481529060010190602001808311610b0a57829003601f168201915b505050505081565b610b376110bb565b600381604051610b4791906116ac565b9081526040519081900360200190206003015460ff16610b9b5760405162461bcd60e51b815260206004820152600f60248201526e46656564206e6f742061637469766560881b6044820152606401610387565b6000600382604051610bad91906116ac565b908152604051908190036020019020600301805491151560ff1990921691909117905560005b600454811015610cb657818051906020012060048281548110610bf857610bf8611696565b90600052602060002001604051610c0f91906117fc565b604051809103902003610ca45760048054610c2c90600190611770565b81548110610c3c57610c3c611696565b9060005260206000200160048281548110610c5957610c59611696565b906000526020600020019081610c6f91906118c0565b506004805480610c8157610c816119a1565b600190038181906000526020600020016000610c9d9190611306565b9055610cb6565b80610cae81611757565b915050610bd3565b5080604051610cc591906116ac565b604051908190038120907f06aa2b76883f4d9b405ce5d8cb618072ed06ad9a9f4a3a638d6a76f995f950ce90600090a250565b600080600383604051610d0b91906116ac565b908152604080519182900360209081018320608084018352805484526001810154918401919091526002810154918301919091526003015460ff16151560608201819052909150610d5f5750600092915050565b60408101516020820151610d739042611770565b11159392505050565b610d846110bb565b6001600160a01b038116610de95760405162461bcd60e51b815260206004820152602660248201527f4f776e61626c653a206e6577206f776e657220697320746865207a65726f206160448201526564647265737360d01b6064820152608401610387565b6104d1816112b6565b600080600383604051610e0591906116ac565b908152604080519182900360209081018320608084018352805484526001810154918401919091526002810154918301919091526003015460ff16151560608201819052909150610e685760405162461bcd60e51b8152600401610387906116c8565b5192915050565b6000806003604051610e92906a14150b5dd2d1104bd554d160aa1b8152600b0190565b908152604051908190036020018120549150600090600390610ec5906a16550b5dd2d1104bd554d160aa1b8152600b0190565b9081526040519081900360200190205490508115801590610ee65750600081115b610f235760405162461bcd60e51b815260206004820152600e60248201526d496e76616c69642070726963657360901b6044820152606401610387565b80610f3683670de0b6b3a76400006117c3565b610f4091906117da565b9250505090565b600260015403610f995760405162461bcd60e51b815260206004820152601f60248201527f5265656e7472616e637947756172643a207265656e7472616e742063616c6c006044820152606401610387565b6002600155565b600382604051610fb091906116ac565b9081526040519081900360200190206003015460ff16610fe25760405162461bcd60e51b8152600401610387906116c8565b600081116110225760405162461bcd60e51b815260206004820152600d60248201526c496e76616c696420707269636560981b6044820152606401610387565b8060038360405161103391906116ac565b9081526040519081900360200181209190915542906003906110569085906116ac565b908152604051908190036020018120600101919091556110779083906116ac565b60408051918290038220838352426020840152917f6e838f2a03741f5f2aff5480963b672fb0dd8430a4dc75db9b67ce009733c9fe91015b60405180910390a25050565b6000546001600160a01b0316331461068e5760405162461bcd60e51b815260206004820181905260248201527f4f776e61626c653a2063616c6c6572206973206e6f7420746865206f776e65726044820152606401610387565b60038260405161112591906116ac565b9081526040519081900360200190206003015460ff161561117e5760405162461bcd60e51b81526020600482015260136024820152724665656420616c72656164792065786973747360681b6044820152606401610387565b600081116111c25760405162461bcd60e51b8152602060048201526011602482015270125b9d985b1a59081a19585c9d1899585d607a1b6044820152606401610387565b60408051608081018252600080825260208201528082018390526001606082015290516003906111f39085906116ac565b908152604080516020928190038301902083518155918301516001808401919091559083015160028301556060909201516003909101805460ff19169115159190911790556004805491820181556000527f8a35acfbc15ff81a39ae7d344fd709f28e8600b4aa8c65c6b64bfe7fe36bd19b0161127083826119b7565b508160405161127f91906116ac565b604051908190038120828252907fd4cea00ed71b35d1098d2858581631ae7cc43a468f7c44f43bb28cd2c8a6c543906020016110af565b600080546001600160a01b038381166001600160a01b0319831681178455604051919092169283917f8be0079c531659141344cd1fd0a4f28419497f9722a3daafe3b4186f6b6457e09190a35050565b50805461131290611789565b6000825580601f10611322575050565b601f0160209004906000526020600020908101906104d191905b80821115611350576000815560010161133c565b5090565b634e487b7160e01b600052604160045260246000fd5b604051601f8201601f1916810167ffffffffffffffff8111828210171561139357611393611354565b604052919050565b600082601f8301126113ac57600080fd5b813567ffffffffffffffff8111156113c6576113c6611354565b6113d9601f8201601f191660200161136a565b8181528460208386010111156113ee57600080fd5b816020850160208301376000918101602001919091529392505050565b6000602080838503121561141e57600080fd5b823567ffffffffffffffff8082111561143657600080fd5b818501915085601f83011261144a57600080fd5b81358181111561145c5761145c611354565b8060051b61146b85820161136a565b918252838101850191858101908984111561148557600080fd5b86860192505b838310156114c1578235858111156114a35760008081fd5b6114b18b89838a010161139b565b835250918601919086019061148b565b9998505050505050505050565b600080604083850312156114e157600080fd5b823567ffffffffffffffff8111156114f857600080fd5b6115048582860161139b565b95602094909401359450505050565b60006020828403121561152557600080fd5b813567ffffffffffffffff81111561153c57600080fd5b6115488482850161139b565b949350505050565b80356001600160a01b038116811461156757600080fd5b919050565b60006020828403121561157e57600080fd5b61158782611550565b9392505050565b600080604083850312156115a157600080fd5b6115aa83611550565b946020939093013593505050565b60005b838110156115d35781810151838201526020016115bb565b50506000910152565b600081518084526115f48160208601602086016115b8565b601f01601f19169290920160200192915050565b6000602080830181845280855180835260408601915060408160051b870101925083870160005b8281101561165d57603f1988860301845261164b8583516115dc565b9450928501929085019060010161162f565b5092979650505050505050565b60006020828403121561167c57600080fd5b5035919050565b60208152600061158760208301846115dc565b634e487b7160e01b600052603260045260246000fd5b600082516116be8184602087016115b8565b9190910192915050565b60208082526015908201527450726963652066656564206e6f742061637469766560581b604082015260600190565b80516001600160801b038116811461156757600080fd5b6000806040838503121561172157600080fd5b61172a836116f7565b9150611738602084016116f7565b90509250929050565b634e487b7160e01b600052601160045260246000fd5b60006001820161176957611769611741565b5060010190565b8181038181111561178357611783611741565b92915050565b600181811c9082168061179d57607f821691505b6020821081036117bd57634e487b7160e01b600052602260045260246000fd5b50919050565b808202811582820484141761178357611783611741565b6000826117f757634e487b7160e01b600052601260045260246000fd5b500490565b600080835461180a81611789565b60018281168015611822576001811461183757611866565b60ff1984168752821515830287019450611866565b8760005260208060002060005b8581101561185d5781548a820152908401908201611844565b50505082870194505b50929695505050505050565b601f8211156106df57600081815260208120601f850160051c810160208610156118995750805b601f850160051c820191505b818110156118b8578281556001016118a5565b505050505050565b8181036118cb575050565b6118d58254611789565b67ffffffffffffffff8111156118ed576118ed611354565b611901816118fb8454611789565b84611872565b6000601f821160018114611935576000831561191d5750848201545b600019600385901b1c1916600184901b17845561199a565b600085815260209020601f19841690600086815260209020845b8381101561196f578286015482556001958601959091019060200161194f565b508583101561198d5781850154600019600388901b60f8161c191681555b50505060018360011b0184555b5050505050565b634e487b7160e01b600052603160045260246000fd5b815167ffffffffffffffff8111156119d1576119d1611354565b6119df816118fb8454611789565b602080601f831160018114611a1457600084156119fc5750858301515b600019600386901b1c1916600185901b1785556118b8565b600085815260208120601f198616915b82811015611a4357888601518255948401946001909101908401611a24565b5085821015611a615787850151600019600388901b60f8161c191681555b5050505050600190811b0190555056fea26469706673582212202c367f9e0071635d9a070764cfef816fdd7491d1393529fca56317cd1954e73b64736f6c63430008110033",
  "linkReferences": {},
  "deployedLinkReferences": {}
}