{
  "_format": "hh-sol-artifact-1",
  "contractName": "WrappedKDA",
  "sourceName": "contracts/WrappedKDA.sol",
  "abi": [
    {
      "inputs": [],
      "stateMutability": "nonpayable",
      "type": "constructor"
    },
    {
      "anonymous": false,
      "inputs": [
        {
          "indexed": true,
          "internalType": "address",
          "name": "owner",
          "type": "address"
        },
        {
          "indexed": true,
          "internalType": "address",
          "name": "spender",
          "type": "address"
        },
        {
          "indexed": false,
          "internalType": "uint256",
          "name": "value",
          "type": "uint256"
        }
      ],
      "name": "Approval",
      "type": "event"
    },
    {
      "anonymous": false,
      "inputs": [
        {
          "indexed": true,
          "internalType": "address",
          "name": "user",
          "type": "address"
        },
        {
          "indexed": false,
          "internalType": "uint256",
          "name": "amount",
          "type": "uint256"
        }
      ],
      "name": "Deposit",
      "type": "event"
    },
    {
      "anonymous": false,
      "inputs": [
        {
          "indexed": true,
          "internalType": "address",
          "name": "from",
          "type": "address"
        },
        {
          "indexed": true,
          "internalType": "address",
          "name": "to",
          "type": "address"
        },
        {
          "indexed": false,
          "internalType": "uint256",
          "name": "value",
          "type": "uint256"
        }
      ],
      "name": "Transfer",
      "type": "event"
    },
    {
      "anonymous": false,
      "inputs": [
        {
          "indexed": true,
          "internalType": "address",
          "name": "user",
          "type": "address"
        },
        {
          "indexed": false,
          "internalType": "uint256",
          "name": "amount",
          "type": "uint256"
        }
      ],
      "name": "Withdrawal",
      "type": "event"
    },
    {
      "inputs": [
        {
          "internalType": "address",
          "name": "owner",
          "type": "address"
        },
        {
          "internalType": "address",
          "name": "spender",
          "type": "address"
        }
      ],
      "name": "allowance",
      "outputs": [
        {
          "internalType": "uint256",
          "name": "",
          "type": "uint256"
        }
      ],
      "stateMutability": "view",
      "type": "function"
    },
    {
      "inputs": [
        {
          "internalType": "address",
          "name": "spender",
          "type": "address"
        },
        {
          "internalType": "uint256",
          "name": "amount",
          "type": "uint256"
        }
      ],
      "name": "approve",
      "outputs": [
        {
          "internalType": "bool",
          "name": "",
          "type": "bool"
        }
      ],
      "stateMutability": "nonpayable",
      "type": "function"
    },
    {
      "inputs": [
        {
          "internalType": "address",
          "name": "account",
          "type": "address"
        }
      ],
      "name": "balanceOf",
      "outputs": [
        {
          "internalType": "uint256",
          "name": "",
          "type": "uint256"
        }
      ],
      "stateMutability": "view",
      "type": "function"
    },
    {
      "inputs": [],
      "name": "decimals",
      "outputs": [
        {
          "internalType": "uint8",
          "name": "",
          "type": "uint8"
        }
      ],
      "stateMutability": "view",
      "type": "function"
    },
    {
      "inputs": [
        {
          "internalType": "address",
          "name": "spender",
          "type": "address"
        },
        {
          "internalType": "uint256",
          "name": "subtractedValue",
          "type": "uint256"
        }
      ],
      "name": "decreaseAllowance",
      "outputs": [
        {
          "internalType": "bool",
          "name": "",
          "type": "bool"
        }
      ],
      "stateMutability": "nonpayable",
      "type": "function"
    },
    {
      "inputs": [],
      "name": "deposit",
      "outputs": [],
      "stateMutability": "payable",
      "type": "function"
    },
    {
      "inputs": [
        {
          "internalType": "address",
          "name": "spender",
          "type": "address"
        },
        {
          "internalType": "uint256",
          "name": "addedValue",
          "type": "uint256"
        }
      ],
      "name": "increaseAllowance",
      "outputs": [
        {
          "internalType": "bool",
          "name": "",
          "type": "bool"
        }
      ],
      "stateMutability": "nonpayable",
      "type": "function"
    },
    {
      "inputs": [],
      "name": "name",
      "outputs": [
        {
          "internalType": "string",
          "name": "",
          "type": "string"
        }
      ],
      "stateMutability": "view",
      "type": "function"
    },
    {
      "inputs": [],
      "name": "symbol",
      "outputs": [
        {
          "internalType": "string",
          "name": "",
          "type": "string"
        }
      ],
      "stateMutability": "view",
      "type": "function"
    },
    {
      "inputs": [],
      "name": "totalKDABacking",
      "outputs": [
        {
          "internalType": "uint256",
          "name": "",
          "type": "uint256"
        }
      ],
      "stateMutability": "view",
      "type": "function"
    },
    {
      "inputs": [],
      "name": "totalSupply",
      "outputs": [
        {
          "internalType": "uint256",
          "name": "",
          "type": "uint256"
        }
      ],
      "stateMutability": "view",
      "type": "function"
    },
    {
      "inputs": [
        {
          "internalType": "address",
          "name": "to",
          "type": "address"
        },
        {
          "internalType": "uint256",
          "name": "amount",
          "type": "uint256"
        }
      ],
      "name": "transfer",
      "outputs": [
        {
          "internalType": "bool",
          "name": "",
          "type": "bool"
        }
      ],
      "stateMutability": "nonpayable",
      "type": "function"
    },
    {
      "inputs": [
        {
          "internalType": "address",
          "name": "from",
          "type": "address"
        },
        {
          "internalType": "address",
          "name": "to",
          "type": "address"
        },
        {
          "internalType": "uint256",
          "name": "amount",
          "type": "uint256"
        }
      ],
      "name": "transferFrom",
      "outputs": [
        {
          "internalType": "bool",
          "name": "",
          "type": "bool"
        }
      ],
      "stateMutability": "nonpayable",
      "type": "function"
    },
    {
      "inputs": [
        {
          "internalType": "uint256",
          "name": "amount",
          "type": "uint256"
        }
      ],
      "name": "withdraw",
      "outputs": [],
      "stateMutability": "nonpayable",
      "type": "function"
    },
    {
      "stateMutability": "payable",
      "type": "receive"
    }
  ],
  "bytecode": "0x60806040523480156200001157600080fd5b506040518060400160405280600b81526020016a57726170706564204b444160a81b81525060405180604001604052806004815260200163774b444160e01b815250816003908162000064919062000126565b50600462000073828262000126565b5050600160055550620001f2565b634e487b7160e01b600052604160045260246000fd5b600181811c90821680620000ac57607f821691505b602082108103620000cd57634e487b7160e01b600052602260045260246000fd5b50919050565b601f8211156200012157600081815260208120601f850160051c81016020861015620000fc5750805b601f850160051c820191505b818110156200011d5782815560010162000108565b5050505b505050565b81516001600160401b0381111562000142576200014262000081565b6200015a8162000153845462000097565b84620000d3565b602080601f831160018114620001925760008415620001795750858301515b600019600386901b1c1916600185901b1785556200011d565b600085815260208120601f198616915b82811015620001c357888601518255948401946001909101908401620001a2565b5085821015620001e25787850151600019600388901b60f8161c191681555b5050505050600190811b01905550565b610e2980620002026000396000f3fe6080604052600436106100e15760003560e01c8063395093511161007f578063a457c2d711610059578063a457c2d714610287578063a9059cbb146102a7578063d0e30db0146102c7578063dd62ed3e146102cf57600080fd5b8063395093511461021c57806370a082311461023c57806395d89b411461027257600080fd5b806323b872dd116100bb57806323b872dd146101ad5780632ab60638146101cd5780632e1a7d4d146101e0578063313ce5671461020057600080fd5b806306fdde0314610133578063095ea7b31461015e57806318160ddd1461018e57600080fd5b3661012e57341561012c576100f633346102ef565b60405134815233907fe1fffcc4923d04b559f4d29a8bfc6cda04eb5b0d3c460751c2402c5c5cc9109c9060200160405180910390a25b005b600080fd5b34801561013f57600080fd5b506101486103b3565b6040516101559190610c5a565b60405180910390f35b34801561016a57600080fd5b5061017e610179366004610cc4565b610445565b6040519015158152602001610155565b34801561019a57600080fd5b506002545b604051908152602001610155565b3480156101b957600080fd5b5061017e6101c8366004610cee565b61045f565b3480156101d957600080fd5b504761019f565b3480156101ec57600080fd5b5061012c6101fb366004610d2a565b610483565b34801561020c57600080fd5b5060405160128152602001610155565b34801561022857600080fd5b5061017e610237366004610cc4565b610615565b34801561024857600080fd5b5061019f610257366004610d43565b6001600160a01b031660009081526020819052604090205490565b34801561027e57600080fd5b50610148610637565b34801561029357600080fd5b5061017e6102a2366004610cc4565b610646565b3480156102b357600080fd5b5061017e6102c2366004610cc4565b6106c1565b61012c6106cf565b3480156102db57600080fd5b5061019f6102ea366004610d65565b610762565b6001600160a01b03821661034a5760405162461bcd60e51b815260206004820152601f60248201527f45524332303a206d696e7420746f20746865207a65726f20616464726573730060448201526064015b60405180910390fd5b806002600082825461035c9190610d98565b90915550506001600160a01b038216600081815260208181526040808320805486019055518481527fddf252ad1be2c89b69c2b068fc378daa952ba7f163c4a11628f55a4df523b3ef910160405180910390a35050565b6060600380546103c290610db9565b80601f01602080910402602001604051908101604052809291908181526020018280546103ee90610db9565b801561043b5780601f106104105761010080835404028352916020019161043b565b820191906000526020600020905b81548152906001019060200180831161041e57829003601f168201915b5050505050905090565b60003361045381858561078d565b60019150505b92915050565b60003361046d8582856108b1565b61047885858561092b565b506001949350505050565b61048b610acf565b600081116104db5760405162461bcd60e51b815260206004820152601d60248201527f416d6f756e74206d7573742062652067726561746572207468616e20300000006044820152606401610341565b3360009081526020819052604090205481111561053a5760405162461bcd60e51b815260206004820152601960248201527f496e73756666696369656e7420774b44412062616c616e6365000000000000006044820152606401610341565b6105443382610b28565b604051600090339083908381818185875af1925050503d8060008114610586576040519150601f19603f3d011682016040523d82523d6000602084013e61058b565b606091505b50509050806105d25760405162461bcd60e51b815260206004820152601360248201527212d110481d1c985b9cd9995c8819985a5b1959606a1b6044820152606401610341565b60405182815233907f7fcf532c15f0a6db0bd6d0e038bea71d30d808c7d98cb3bf7268a95bf5081b659060200160405180910390a2506106126001600555565b50565b6000336104538185856106288383610762565b6106329190610d98565b61078d565b6060600480546103c290610db9565b600033816106548286610762565b9050838110156106b45760405162461bcd60e51b815260206004820152602560248201527f45524332303a2064656372656173656420616c6c6f77616e63652062656c6f77604482015264207a65726f60d81b6064820152608401610341565b610478828686840361078d565b60003361045381858561092b565b6106d7610acf565b600034116107175760405162461bcd60e51b815260206004820152600d60248201526c4d7573742073656e64204b444160981b6044820152606401610341565b61072133346102ef565b60405134815233907fe1fffcc4923d04b559f4d29a8bfc6cda04eb5b0d3c460751c2402c5c5cc9109c9060200160405180910390a26107606001600555565b565b6001600160a01b03918216600090815260016020908152604080832093909416825291909152205490565b6001600160a01b0383166107ef5760405162461bcd60e51b8152602060048201526024808201527f45524332303a20617070726f76652066726f6d20746865207a65726f206164646044820152637265737360e01b6064820152608401610341565b6001600160a01b0382166108505760405162461bcd60e51b815260206004820152602260248201527f45524332303a20617070726f766520746f20746865207a65726f206164647265604482015261737360f01b6064820152608401610341565b6001600160a01b0383811660008181526001602090815260408083209487168084529482529182902085905590518481527f8c5be1e5ebec7d5bd14f71427d1e84f3dd0314c0f7b2291e5b200ac8c7c3b925910160405180910390a3505050565b60006108bd8484610762565b9050600019811461092557818110156109185760405162461bcd60e51b815260206004820152601d60248201527f45524332303a20696e73756666696369656e7420616c6c6f77616e63650000006044820152606401610341565b610925848484840361078d565b50505050565b6001600160a01b03831661098f5760405162461bcd60e51b815260206004820152602560248201527f45524332303a207472616e736665722066726f6d20746865207a65726f206164604482015264647265737360d81b6064820152608401610341565b6001600160a01b0382166109f15760405162461bcd60e51b815260206004820152602360248201527f45524332303a207472616e7366657220746f20746865207a65726f206164647260448201526265737360e81b6064820152608401610341565b6001600160a01b03831660009081526020819052604090205481811015610a695760405162461bcd60e51b815260206004820152602660248201527f45524332303a207472616e7366657220616d6f756e7420657863656564732062604482015265616c616e636560d01b6064820152608401610341565b6001600160a01b03848116600081815260208181526040808320878703905593871680835291849020805487019055925185815290927fddf252ad1be2c89b69c2b068fc378daa952ba7f163c4a11628f55a4df523b3ef910160405180910390a3610925565b600260055403610b215760405162461bcd60e51b815260206004820152601f60248201527f5265656e7472616e637947756172643a207265656e7472616e742063616c6c006044820152606401610341565b6002600555565b6001600160a01b038216610b885760405162461bcd60e51b815260206004820152602160248201527f45524332303a206275726e2066726f6d20746865207a65726f206164647265736044820152607360f81b6064820152608401610341565b6001600160a01b03821660009081526020819052604090205481811015610bfc5760405162461bcd60e51b815260206004820152602260248201527f45524332303a206275726e20616d6f756e7420657863656564732062616c616e604482015261636560f01b6064820152608401610341565b6001600160a01b0383166000818152602081815260408083208686039055600280548790039055518581529192917fddf252ad1be2c89b69c2b068fc378daa952ba7f163c4a11628f55a4df523b3ef910160405180910390a3505050565b600060208083528351808285015260005b81811015610c8757858101830151858201604001528201610c6b565b506000604082860101526040601f19601f8301168501019250505092915050565b80356001600160a01b0381168114610cbf57600080fd5b919050565b60008060408385031215610cd757600080fd5b610ce083610ca8565b946020939093013593505050565b600080600060608486031215610d0357600080fd5b610d0c84610ca8565b9250610d1a60208501610ca8565b9150604084013590509250925092565b600060208284031215610d3c57600080fd5b5035919050565b600060208284031215610d5557600080fd5b610d5e82610ca8565b9392505050565b60008060408385031215610d7857600080fd5b610d8183610ca8565b9150610d8f60208401610ca8565b90509250929050565b8082018082111561045957634e487b7160e01b600052601160045260246000fd5b600181811c90821680610dcd57607f821691505b602082108103610ded57634e487b7160e01b600052602260045260246000fd5b5091905056fea26469706673582212205c99b86d52f69f52036ca3a5f480c31504351cb82e72bb84d36441b42031ca1c64736f6c63430008110033",
  "linkReferences": {},
  "deployedLinkReferences": {}
}